:20000000380D0020410E00004F0E0000510E0000530E0000550E0000570E00000000000047
:20002000000000000000000000000000590E00005B0E0000000000005D0E00005F0E000018
:20004000D10D0000610E0000630E0000650E0000670E0000690E00006B0E00006D0E00008F
:200060006F0E0000710E0000730E0000750E0000770E0000790E00007B0E00007D0E000060
:200080007F0E0000810E00007B040020830E0000850E0000870E0000890E00008B0E0000BC
:2000A000E50B00008D0E00008F0E0000910E0000930E0000950E0000890001EB401000F17F
:2000C000844002607047DFF88C04016801F00702012A03D9921E012A02D904E0012200E0D5
:2000E000032262F3020101607047B0FA80F0C0F11F007047012101FA00F0704710B5DFF86A
:200100005414DFF85434DFF854440A681B18A34208D202F007039B1E012B94BF03230123C7
:2001200063F30202DFF83834984209D202F00700801E012899BF022060F30202D208D20030
:200140000A6010BD80B5DFF81C140968400021FA00F202F00300012804D00FD3032809D096
:2001600004D30BE0BDE8014000F064BABDE8014000F064BA00F010FA400802BD002002BDF5
:20018000DFF8E4134A68D20702D40A680242FCD17047DFF8D82331B1022910D00DD304292A
:2001A00002D00ED30FE00121116050600820D06050694004FCD4506870470321F4E70021A6
:2001C000F2E70221F0E700207047021102F00F02012ADFF89C1306D022D3032A07D004D308
:2001E000042A15D01CE048680BE0086809E0DFF88423904204D0DFF88023904204D00FE0C9
:20020000486E00F00F000AE0486EC0F3031006E0DFF86823904203D1C86E00F0030069E75C
:200220000120704738B50D46011101F00F010129DFF83C4306D04DD303291BD00BD30429FB
:2002400039D031BD00F047F805466068000945EA0010606031BDFFF736FF00F03CF80546D5
:200260002068000945EA0010206000F095F9BDE8324043E7DFF8FC12884204D0DFF8F8120B
:2002800088420BD031BD0420FFF77AFF00F023F80546606E000945EA00100AE00420FFF7C8
:2002A0006FFF00F018F80546606E20F0F00040EA0510606631BDDFF8C41288420AD1402012
:2002C000FFF75EFF00F007F80546E06E800845EA8000E06631BD284607E7000070B5021243
:2002E0000C4602F00F020021521E052ADFF8905210D8DFE802F003101214171AC0F3043638
:2003000011B10846FFF73CFF224631462846BDE87040D1E670BD3C35F0E73835EEE7503507
:200320000121EBE758351021E8E77035E6E738B510F47810DFF84852DFF8484246D0B0F5C4
:20034000003F18D0B0F5802F19D0B0F5C02F19D0B0F5002F18D0B0F5202F1CD0B0F5901FCC
:2003600020D0B0F5A01F21D0B0F5C01F27D0B0F5D01F30D02EE000F01CF9296808E000F0AD
:200380000BF925E000200EE00020FFF7DBFE296E01F00F0110E00020FFF7D4FE296EC1F39C
:2003A000031109E00120FFF7CDFE11E00120FFF7C9FEA96E01F0030120FA01F40BE07248CF
:2003C00000F00BF8072806D0082803D100F0F1F8044600E00024204632BD012100F00F0084
:2003E0000128604A06D031D303281FD013D304282AD02BE0506800F47050B0F5006F06D0C9
:20040000B0F5805F1CD0B0F5005F0DD001E004211DE005211BE0106800F0030001280FD0F4
:2004200015D303280ED012D2022110E0106800F00C00042804D00828F6D00C2802D006E07E
:20044000032104E0062102E0072100E000210846704770B502460325032002F00F06721E0E
:200460004A4C03D0521E012A1CD970BD022906D043D3042911D00ED3052911D070BD0425EB
:2004800000200122012100F03EF8FFF71CFE256000F0F2F832E00120F3E702250220F0E735
:2004A0000125EEE7012906D0022910D0032915D006291AD070BD00206168022E07BF89086F
:2004C00040EA810021F00C0141EA800014E001220121002000F017F80220EDE70121012215
:2004E000084600F010F80120E6E7012202212848FFF7E2FD0320DFE7606070BD00F04CF833
:20050000BDE87040FAE538B5C8B102280ED013D304280ED01DD2012002231C461D4D99B1FE
:20052000286092B1E8682042FCD00EE004200823F3E710202023F0E740208023EDE74FF4F7
:2005400000734FF48070E8E72B60BDE8314000F093B831BD04000C40FFDB0BFF0024F40010
:200560000124F40028800C4050800C4018800C4004800C403004080030140A0040051400BB
:2005800008800C40809FD5000400180024800C4040800C4020800C4080B500F00AF8014621
:2005A0002848006800F00F0221FA02F02649086002BD26482649026A02F47052B2F5006FA8
:2005C00008D0B2F5805F04D0B2F5005F04D14868704730E00868704700681E4910F4E0605D
:2005E0001ED0B0F5807F13D0B0F5007F0ED0B0F5407F09D0B0F5806F04D0B0F5A06F17D143
:20060000154870471548704715487047154870470868000E132801DB1348704713487047D1
:200620000868000E132801DB11487047114870470020704700BF4FF4004070470448406841
:200640007047000004800C402C0900200C800C4030060020FC81E00F003FAB01406F400149
:20066000809FD500C0D8A70040B56400C0CF6A00804F120040420F000348024900680880FD
:2006800070470000300900202C800C40DFF800F061040020DFF800F0CD040020DFF800F087
:2006A00035040020DFF800F005040020DFF800F025050020DFF800F0ED030020DFF800F042
:2006C000A5030020DFF800F04701002054492DE9F843544C544D554E0FF2B0190FF28018EE
:2006E0000720A06100234FF40050A06002220220E0614FF0807008600B210720206001200A
:2007000000F0EAF84A480068C0F3C02068600FE055281ED000F00BF928B118214846FFF7CE
:20072000B5FFFFF7B7FF306840F00400306030BF0022686800F08EF828214046FFF7A6FF3C
:200740003C4FFFF7ABFF10F1010FE1D17F1EF8D1E0E74FF47020A06001202870BDE8F183D9
:2007600070B54FF400510020FFF79CFF3249334D334E088028463349FFF794FF4FF4807065
:20078000306041F22100F0630620B0634020B0610D20306201203065FFF788FFFFF796FFFB
:2007A000D5F82E00C0F3072040F4A0607060706A8007FCD52021244881604FF4A00101605B
:2007C0004FF0807021490860A4F58050000940F6B831884204D21E48016841F06001016025
:2007E000002200F037F81D210FF2B800FFF74EFF0FF2D000FFF75EFFD5F84200FFF75EFFF8
:20080000D5F83E00FFF75AFF04A0FFF753FF00F0A7F8FFF757FF002062BD00000D0A000061
:2008200000E100E0000008401C09002010ED00E040600040FFFF0F00BC000020B281E00FA2
:2008400008800C400082E00F7060004080E100E000C0004001214FF4165000F095B80000FA
:200860004177616974696E6720666F722074686520626F6F746C6F6164657220656E746565
:2008800072696E672E2E2E0A00000000426F6F74696E67206170706C69636174696F6E2E60
:2008A0002E2E0A0057656C636F6D6520746F204E7761766520426F6F746C6F616465722196
:2008C0000A0000000D0A0D0A312E3633204368697049443A20000000F0B5104C242505FB43
:2008E000004001248C401AB1002B14BF046144610F26082905D28900476800F011F84160E5
:2009000005E008398900876800F00AF881601AB90BB10461F0BD4461F0BD000000600040D3
:200920008E4027EA060602FA01F13143704742F204000068B0F5801F8041C00F704750F840
:20094000041B61B150F8042BD30744BFA9F101039A180023091F42F8043BFAD1EFE77047A6
:20096000064841F671314163016841F00101016001210348016003494160704708000C40E9
:2009800004200C4000010020F0B585B006460C46154600A80FF20011374F102200F084F815
:2009A000B6F5165F354808D90621FFF752FD04213846FFF737FC324807E00221FFF749FDC1
:2009C00001213846FFF72EFC0020019001213846FFF784FC002002968DF80000294E2A4F63
:2009E000304600F0E6F800A9304600F0BEF80123042204210320FFF76FFF04207870ACB18F
:200A00000123012205210320FFF766FF042070634FF480201D490860B16B41F00401B163DD
:200A20001B490860787840F00100787025B901203870304600F008F879783D70304600F0D0
:200A400083F8304605B0F0BD0F48017899B140781049C00705D503200865CA200860052070
:200A600004E00220086548200860042008604FF47A7000F0EAB870474005140003001200C3
:200A8000F0B31A00004008403209002080E200E000E100E004400840050000000000000022
:200AA0008025000000000000103A07D330B4B1E83810103AA0E83810F9D230BC530724BF9A
:200AC000B1E80810A0E8081044BF51F8043B40F8043BD20724BF31F8022B20F8022B44BF69
:200AE0000B7803707047083A07D3B1E80810083A40F8043B40F804CBF7D25307E4E70000CE
:200B0000DFF800F0E105002070B50D000446164606D10B48844210D10A48FFF708FC0546C8
:200B200004212046FFF7ECFF6801B0FBF6F0203847F6F87101EAC000E06070BD0000000039
:200B4000004008404005140038B500F02DF8E84300F0050045EA4000606031BD19B1416CFE
:200B60000029FCD101210164704738B500F01CF80A20606001212046FFF7F0FF2068297BCD
:200B800020F01C000843697B0843A97B08432060AA6869682046FFF7B7FF2878606000214A
:200BA0002046BDE83440D9E70D4604460221FFF7A7BF10B504460121FFF7D0FFEA2060601A
:200BC000002100202060E06020616061A06340F2F97060630020E06360652046BDE81040EE
:200BE000BCE7000038B5284D264C2868800708D5E868800703D56068010018BF8047022052
:200C0000A8602868400708D5E868400703D5A068010018BF80470420A8602868A169C00775
:200C200011D5E068401CE0600120A860E868C00709D5E06938B1491CB1EB502F03D3A1EBB8
:200C4000502101206070A16131BD70B50F4E0546306858B90E4C2046FFF769FB30602046BC
:200C6000FFF7B3FA3168B1FBF0F0306000233068084AA5FB000100F00FF8BDE870400321FE
:200C8000FFF787BAE808002010000840280900201081020040420F0013F0004C03D55B427C
:200CA000524263F100039CEA210C00F0178010B5644603D34942404261F1000100F00EF874
:200CC000640004D34942404261F10001244203D55B42524263F1000310BD00001B4213D1A5
:200CE000094236D12AB18446B0FBF2F002FB10C2704700F06BB8FCD30022002370470B0001
:200D00000200002100207047904271EB030CF6D370B5B1FA81F4B3FA83F52C1BA340C4F18A
:200D2000200532FA05F63343A2405FF00046E64002E05B085FEA3202841A71EB030524BFAD
:200D4000204629467641F4D302000B003000002170BD012ACFD970B5140C20D0B1FA81F48D
:200D6000B2FA82F5C4F120046419B4F12006D6D3B2405FF00044F440002502E052085FEA23
:200D80003303C61A71EB020E24BF3046714664416D41F3D302000B002000290070BD0C46D3
:200DA000B1FBF2F102FB11452D0445EA1045B5FBF2F402FB145580B240EA0545B5FBF2F068
:200DC00002FB105240EA044070BD0000704700002DE9F047194C2068E16811EA000800D507
:200DE000FEE7DFF85490D9F830A00AEA08050226002718E0E80714D5D9F800000121B940A6
:200E000000EB0710A160C06858B1017A81F00102027203681A0004D001B1012142683846E6
:200E200098476D087F1C002DE4D1761E28EA0A05DED1BDE8F087000008200C4000300C4071
:200E400080B5C046C046BDE8014000F024B8FEE7FEE7FEE7FEE7FEE7FEE7FEE7FEE7FEE792
:200E6000FEE7FEE7FEE7FEE7FEE7FEE7FEE7FEE7FEE7FEE7FEE7FEE7FEE7FEE7FEE7FEE722
:200E8000FEE7FEE7FEE7FEE7FEE7FEE7FEE7FEE7FEE7FEE7FEE7C046C046C046C04600F073
:200EA00001F800000120C046002801D000F008F80020C046C046FFF753FC00F015F80000BB
:200EC00010B5074979441831064C7C44163404E00A68081D511888470146A142F8D110BD28
:200EE00084000000A400000000F000B80746384600F002F8FBE700002021090326311820AF
:200F0000ABBEF9E700B500BF130096469446103928BFA0E80C50FAD85FEA417C28BF0CC0AC
:200F200048BF40F8042BC90728BF20F8022B48BF00F8012B00BD10B450F8041B79B10268A0
:200F4000436812180830DC0744BFA9F10104E31852F8044B43F8044B091FF9D1ECE710BC50
:200F600070470000DBF9FFFFFC0200003806002000000000C3FFFFFF28050000140000008B
:200F800010010020000000000022FFF7BBBF0000DFF800F061090000DFF800F0890F0000FE
:200FA00070B504468D4E0D46304600F05FF92946204600F067F900F035F906F10800BDE8EF
:200FC000704000F053B970B58548864D00680004840901217CA000F083F904E0284600F0BB
:200FE00045F900F05AF800F032F90600FBD000F036F9002EF7D0622E18D0632E21D0642EE5
:2010000010D06C2E15D06D2E23D06E2E1DD0702E08D0722E20D0742E04D0752EDED0762EE9
:201020000AD01DE0284600F021F9DCE700F08EF9D9E705F10C00F6E721460020FFF7B0FF5C
:20104000D1E721464FF40050F8E767494FF07E60F4E766496648F1E7664967480860C2E7B3
:2010600005F11400DFE770B513465A1E9BB111F8013B082480B2054640001E0648BF40F0D5
:2010800001002D0444BF80F4805080F021005B00641EEFD1E8E780B270BDF0B5574C002013
:2010A000ADF5017D606200F0D2F8616A0A1910711072481C04286062F5DB00F073F9FFF72F
:2010C00067FFA068011200EBD1514912A0EB4120A162E0624FF40075294600A8FFF75CFFD6
:2010E00065610020E06139A539A600AF35E00020A06100F0ACF8A169C855481CB0F5007FE4
:20110000A061F6D30020E0814FF4007200A9FFF7AAFFE081012100206080304600F0E0F8C6
:201120000020606200F093F8616A0A199070481C02286062F6DB6088E189884202D0206ACB
:20114000401C2062E06900F05BF8E06900F061F800F05BF8E069401CE061A06AE169401EB8
:201160008842C4D2002603E000F071F8F055761CE26A9642F8D300A90020FFF774FF208213
:20118000A06A00F03DF8A06A00F043F800F03DF800F05DF8207000F038F800F058F86070C1
:2011A0000020A0814FF40051A268FFF75CFF2188A081814207BF012106A0012106A000F02C
:2011C0008FF80DF5017DF0BD5300000042000000430000005A000000580000002406002087
:2011E000F881E00F080600200002E00F0042E00F0040E00F0CED00E00400FA05B80800204C
:20120000400200F5005000F004B90121284600F067B8400200AB4FF40072002100F50050F3
:2012200000F0D1B838B504460725A80024FA00F101F00F000A28B4BF303037308DF800002A
:20124000012100A800F04CF86D1EEED531BD80B500F030F810F1010FFAD0C0B202BD10B536
:201260000446012100F03CF8204610BD10B5044604E00121204600F033F8641C20780028D5
:20128000F7D110BD002211E01346120242EA132210F8013B5A4092B2130903F00F035A40FB
:2012A00082EA023292B2D3B282EA43128842EBD3104670471F498A684B68934202D14FF07B
:2012C000FF3070471C48185C5B1CB3F5207F08BF0023934202D100228A6000234B6070476F
:2012E00070B504460D46002604E0315D104800F0BEF8761CAE42F8DB70BD38B50F480D4C77
:201300000568E068401CE060206810B12168E8B28847A068B0F5207F03DA07494554401CD3
:2013200003E06168884201D00020A06031BD0000004008400C090020380600201C40084099
:2013400080F3088880F309888F46704710484FF0FF310160416000210E4801608160C16156
:2013600000200D49086000210C4801650521016280218161002181634FF4807101600021ED
:20138000C1634FF400500649086041680068D7E780E100E000000840B860004008800C405B
:2013A00008ED00E028480078472814BF49284FF4007005D048280CBF4FF480504FF4006044
:2013C00022490860704730B5214C2568ED07FCD4204D0818686005F10C01012028601E4879
:2013E0004160D118091F0160A2F1080189000909090141F06A4141F0010181604FF4401016
:20140000164908601868E860012020601020286030BD4FF0FF31024602E052F8043B19407C
:201420000A4B1B681B189A42F7D311F1010F08D00849486001200860022008600869C007CD
:20144000FCD4704700000000FE81E00F2409002028200C400C000C400001002000310C40C0
:20146000026CD20702D4426C0A42FCD1704738B504460D46A068C006FCD540212046FFF7EB
:20148000EFFFA56231BD00000D0A52656164790D0A0000000D0A4F4B0D0A00000D0A3F0D1B
:1814A0000A0000000D0A4352433A20000D0A00000048E8010080000019
:00000001FF
